:040000006F205045D8
:100004000000000000000000522C0000522C0000F0
:1000140000000000522C000000000000000000005E
:10002400522C0000522C00000000000000000000D0
:10003400762B000000000000522C0000000000009D
:10004400522C0000522C0000522C0000522C0000B4
:10005400522C0000522C0000522C0000522C0000A4
:10006400522C0000522C0000522C0000522C000094
:10007400522C0000522C0000522C0000522C000084
:10008400522C0000522C0000522C0000D62A0000F2
:100094009C260000522C0000522C0000522C000020
:1000A400522C0000522C0000522C0000522C000054
:1000B400522C0000522C0000522C0000522C000044
:1000C400522C0000522C0000522C0000522C000034
:1000D400522C0000522C0000522C0000522C000024
:1000E400522C0000522C0000222B00006E2B00002A
:0C00F400722B0000522C0000522C000067
:100100002A8311C62300B3007D16050365FE828095
:100110002A8309CA83830500230073007D16050323
:1001200085056DFA828005458280DC49854523AAD4
:10013000F19A82879307E00363FEC7027D0615826A
:100140001376F60F0547B307E640AA073E07D98F97
:1001500093D6A7001397070193F6F603418391E224
:1001600021670605AA958E05B7670040AE972392D2
:10017000E7008280050605821376F60F0147E1B796
:100180009356750013870194854E9378F500814747
:100190003A861303F00F33CFD601214E3308D70030
:1001A0000348280013F5F70F630B080003481700F6
:1001B0006318B80403480700631418058280639A23
:1001C000D5011398270032987A98034828006319BC
:1001D0000802034807006304680063131803034818
:1001E0001700631D68008A07B29723801701A38058
:1001F000B7000547B6972381E7008280E305B8FE84
:1002000085071107E39CC7F9029001458280834767
:100210002500A9CB0345150031E593F6F70013D768
:1002200077008606971700209387071AB697BA9724
:1002300003C77702058B05EB03C777020983058B9C
:100240001DE303C57702058911ED03C77702098312
:10025000058B11EB03C77702054513674700A3839E
:10026000E7028280014582801C4513F7070193F560
:10027000F70019C35841D98D37270240185B9356B0
:100280008701BD8A81E60547238AE182035505007F
:100290001377F50F39CB37170140032707808146C5
:1002A0000543130E8002BD4E130F8004A148331680
:1002B000D3003378C50063130603639BC70937185F
:1002C0000140232AC880139626003398CE00134895
:1002D000F8FF3377E8003396C500518F8506E39821
:1002E00016FDB716014023A0E6801307F00F6370D8
:1002F000A7063717014013070780544301460543FB
:10030000130E8002BD4E130F8004A1481307860010
:100310003317E3003378E500631307036391C705E0
:1003200037180140232AE880131726003398EE007F
:100330001348F8FFB376D8003397E500D98E050649
:10034000E31616FDB717014093870780D4C3828058
:10035000E39BE7F7371801402328C880ADB7E39542
:10036000E7FD371801402328E8807DBF9307E003AD
:1003700063FAA7029307F501958393F7F70F130725
:100380000002B387E70203D50181AA97C207C183A0
:100390002398F180130700206375F70002904165F0
:1003A0007D15828093071500858393F7F70F094722
:1003B000C9BF4111B767004006C622C426C22396B2
:1003C00007C493860196938701947D572380E700A5
:1003D000A380E70023810700A38107009107E3972B
:1003E000D7FE130400048145014523988180493BD1
:1003F0008145130500086933971700209387C7ECE0
:10040000228523968700239E870017170020230448
:1004100007EC97170020238807EC893F9314050108
:100420002285A937B7670040C18042052394970011
:1004300041812390A70003D407C02146854501458B
:10044000BE84CD394204DD779387070741807D8CD8
:100450008967938707223D8C239084C0B240224451
:10046000930700082396F4C492444101828041110D
:100470003777004002C6130707C03AC63247130752
:1004800087023AC6B24788C341018280834715007C
:1004900085EF8347250093F6F70013D7770086068C
:1004A00097170020938747F2B697BA9703C777024A
:1004B0000983058B11CB03C77702058B11E703C7AF
:1004C00077026D9BA383E7028280B7E700E02147B4
:1004D00023A2E718414723A2E7183707000423A205
:1004E000E7188280B7E700E0214723A2E7104147E1
:1004F00023A2E7103707000423A2E710828011C16E
:10050000D5B7E1B7135675003D890605329512053A
:1005100097170020938747DBAA9783C6E700B76742
:100520000040938707C08A06BE9683D7060061778E
:1005300013070708C207C18321C665761306F6FBB9
:10054000F18FD98FC207C183114837E700E0130745
:100550000718214548C3C1454CC33706000450C3A2
:10056000054733170701B98FC207C1832390F600EF
:10057000B7E700E093870710C8C3CCC3D0C382801D
:1005800071761306F6F8F18FD98FC207C18331480F
:100590006DBF91679843B7E739E39387973363005B
:1005A000F702116541111305051706C6C935B707CE
:1005B000EFBE37E700E0938707083CC701A08280C1
:1005C00097170020938707C541111306400B8145FB
:1005D0003E8506C635362319050223180502B240AA
:1005E00017170020130747CA18D5231D0500130746
:1005F000000497160020938626C52316E5022311D2
:10060000E50214C9231AE500231C05002315E500A3
:1006100041018280971700209387C7BF2399070263
:1006200023980702239D070023900700238F0700CC
:10063000239C0700238307008280011122CC26CA55
:100640004AC84EC606CEAA84014413890182930982
:10065000400203C741829307170093F7F70F6360C7
:10066000F404130670038145171500201305C5D542
:10067000413C41469305F00F17150020130535D571
:1006800041346244F240D2444249B2494146930562
:10069000F00F17150020130595D4056195B463700C
:1006A000E4023307340383270900BA9799EF0290D5
:1006B000F2406244D2444249B24905618280E31863
:1006C00087FE973700009387678FDC4726850504F0
:1006D00082971374F40FB5BF011122CC06CE2A8481
:1006E000094799C203C70600637EE60001CA680095
:1006F00002C6393C8357C1002310F400F240624423
:100700000561828083C7150083C60500198EA20784
:10071000D58F42062310F400BA9541821104E9B73F
:10072000AA8709472E8599C203C70600637EE600A3
:100730000DCA83D7070001116C0006CE2316F10005
:10074000C13AF2400561828083D60700198E4206C5
:100750002300D500A182A300D50041823A959107DC
:10076000F1B782805D71035885004EDEAA8903557A
:10077000A500CAC02E891317050193150801A2C44C
:10078000C181418386C6A6C252DC56DA5AD85ED6EB
:1007900083D749003384E5406356A80013941700BB
:1007A000198C2E944204418031C863FB870063E5B5
:1007B000F5089D8D1397050141832395E9003E843B
:1007C000B2856373C400A2851394050141806377E9
:1007D000F70603AB0900B304F440338AE740BA9448
:1007E000420AC204135A0A01C180B305EB006386B2
:1007F000061063698A0422864A85F93D83D6A900DA
:1008000003D74900B3878600C207C183060763E4A4
:10081000D70063C5E700998FC207C183B640228520
:1008200026442395F90096440649F259625AD25A51
:10083000425BB25B61618280BE95ADBF1D8F420796
:10084000418371B783CA06004A8536C6B30B50414F
:10085000B37B7A015E862EC441359387FAFFB3F7E6
:1008600047015E9993F7F70FB2464A85A5CBB38A45
:10087000FA405687C20A93DA0A01A24563F354018B
:100880002687131A0701937AF70F135A0A010147B3
:100890001308C101330677012E960345060033067F
:1008A000E80005072300A6001376F70FE364F6FEC1
:1008B00001471376F70F63675603137AFA0F3386EF
:1008C00047014A85C28536C4013D338A4441A24668
:1008D00093140A0113054900C180569B85D02686D2
:1008E000DA8521BF3306EB00834506003386E70037
:1008F00042962300B60005076DBF63678A00228613
:100900004A85EFF0FF80DDBD52864A85EFF05F80BB
:1009100083A50900268633054901E5B70357A500DD
:10092000835785008356C5007971998F3E86C2072B
:1009300026D206D622D44AD04ECE52CC56CA5AC857
:10094000C183AA8463F3F6003686B76700409387B5
:1009500007C0139A25003E9A835A0A00A16793871D
:10096000070833E9FA009319060193FA0A6093071E
:10097000004093D90901014B6396FA00135B6900AB
:10098000137B1B0013941500B3076401B766004086
:100990008E07B69703D50700DC4006053695D1CB08
:1009A0000947AA8534004E863E852304E10002C62D
:1009B000553B83D7A4005A940E04CE973767004066
:1009C00022972395F40083574700C166938606C09B
:1009D000F58F13F6F93FD18F2312F700130700406C
:1009E000934709036395EA000547A387E400657709
:1009F0001307F7FBF98F37E700E013070718A14546
:100A00004CC3414650C3B706000454C32310FA0038
:100A1000B7E700E093870710CCC3B2502254D0C38D
:100A2000D4C392540259F249624AD24A424B4561B8
:100A300082808C4081464E86BA9579399DBF1317C6
:100A400015002E9797160020938606881207369772
:100A5000AA870345E700054796076397E500C107A6
:100A6000AA853385F6005DBD011137670040130785
:100A700007C026CA93142500BA9403D704007176E0
:100A80001306F6F893150701718F21661306060801
:100A9000BE9622CC83D7C6003364C70003D7860036
:100AA00006CEC1813A8663F3E7003E86420693F59F
:100AB00005609307004041826397F504814532C683
:100AC0002AC4EFF02FE7324622458545EFF08FE646
:100AD0008D673D8CB7E700E0938707182146D0C3A8
:100AE000C146D4C337070004D8C3B7E700E023905A
:100AF000840093870710D0C3F2406244D4C3D8C3A4
:100B0000D244056182808545D1B7AA873D89AE86EA
:100B10001317150093D57700971700209387C78A7E
:100B2000BA97AE9703C877021378180063050800D8
:100B300002900145828003C87702411106C61368FE
:100B400018002E97A38307031207970700209387A7
:100B5000A777BA9794C323A207002394C7002395CD
:100B60000700F13DB240054541018280134505086B
:100B7000014681451375050849BF18419387419A7D
:100B800098C3584123A4070023A60700D8C30345F0
:100B90000500E9BF0347150019C3014582802E8671
:100BA0000C45AA8703452500B5E19378F500939697
:100BB00018001717002013072781935575003697E3
:100BC0002E970348770213781800630408000290F8
:100BD000E9B703487702411106C613681800AE96BC
:100BE000A30307039206170700201307E76D369744
:100BF000B1074685232007005CC32314C7002315D3
:100C00000700353DB240054541018280B337C00041
:100C1000B307F040FD8DD5BD9707002083D78762CD
:100C20009706002083D62662411122C406C626C23A
:100C3000170400200354C46063CCD708958FC20703
:100C4000C183014763F78700B307F4401397070197
:100C500041839704002083D4E45D636497061705FD
:100C600000201305E55CEFF08FDA21CD9707002017
:100C700083D7475D9706002083D6E65C63CFD70411
:100C8000958FC207C183014763F687001D8C131738
:100C900004014183636897049707002083D7A7590D
:100CA000B3049040658F3A8463F3E7003E844204C6
:100CB0004180A2851705002013058557E13D19E104
:100CC00002900144B2402285224492444101828034
:100CD00013171400158FBA979DB713171400158FAB
:100CE000BA9745B71705002013058554EFF00FFAA2
:100CF000C9BF9707002083D767539706002083D684
:100D00000653411126C206C622C49704002083D48C
:100D1000A45163CBD706958FC207C183268763F39F
:100D200097003E874207418329CB17050020130512
:100D3000A54EEFF0CFCD31C19705002083A5454EDC
:100D4000B1ED9707002083D7674E9706002083D622
:100D5000064E63C0D704958FC207C183268463F310
:100D600097003E844204418031C4A28517050020CB
:100D70001305854A053519E102900144B2402285E8
:100D8000224492444101828013971400158FBA9730
:100D900061B713971400158FBA977DBF170600200F
:100DA0000356E6478146170500201305A5475D3A1F
:100DB0002A845DBF1705002013050546EFF00FEDEF
:100DC0006DBF03C755009307F00F631BF71C170790
:100DD00000200347074679714ECE06D622D426D28C
:100DE0004AD052CC56CA5AC85EC662C466C26AC0ED
:100DF0009707002083C7674297090020938989419C
:100E000005EF9DEB03C4050083C725002A8B2E8ABE
:100E1000B38AC5002E942380A900A380F90015AAE7
:100E20002D476384E71415476392E7128344240037
:100E300093F7840089C70290029001451DAA834C54
:100E400054008345340083474400A20C8D892685D5
:100E5000B3ECFC00EFF0CFB2B7670040938707C058
:100E6000131C25003E9C83570C0021695D771307F6
:100E7000070793FBF40013090908F98F33E92B01E5
:100E80003369F9008347340009472A8D8D8B6387C6
:100E9000E7000D47E391E7FA1369096093FCFC7FD3
:100EA0006685EFF0AFCC9D8013C7140093171D002B
:100EB000BA974205376700408E07BA974181239061
:100EC000A70093971B00A697920717070020130708
:100ED000A73FBA97239697012387A701B14791C0EF
:100EE000914709473317F700334727019377F7F8FE
:100EF00081C4E577FD17F98F37E700E0130707187E
:100F0000A1454CC3414650C3B7060004C20754C3B1
:100F1000C1832310FC00B7E700E093870710CCC320
:100F2000D0C3D4C3834754008346440003472400FE
:100F3000A207D58F9356770093F7F77FA9CA23822C
:100F400069012383E9002394F90065338347040092
:100F50003E94637C540183470400A29763E7FA0040
:100F6000834714001147E39DE7EA330544414205F6
:100F70004181B250225492540259F249624AD24AF3
:100F8000424BB24B224C924C024D45618280238EE3
:100F90006901238FE9002390F902BD3945F969BD44
:100FA000014582805D71A6C286C6A2C4CAC04EDE5B
:100FB00052DC56DA5AD85ED662D466D2B28451CEAA
:100FC000035985000356A500034765004209420600
:100FD000835745002A8AAE8913590901418255E396
:100FE000634BC9083306C94013170601418363796F
:100FF000F71C3387E7403A864207418363F3E400F6
:10100000268693140601C1804A876377F70C032C68
:101010000A003384F440338BE7403A94420B420495
:10102000135B0B0141803A9C63890616636A9B0A35
:101030002686E2854E85EFF0AFEE03574A00B307F0
:101040009900C207C183060763E4270163C5E7006F
:10105000998FC207C1832314FA00B640264406497B
:10106000F259625AD25A425BB25B225C925C26858C
:1010700096446161828013971700118F4A97420747
:10108000B5B763EBF40081E69D8CB389950081448C
:10109000E9D73289BE848DBF939517003307C940C5
:1010A0006355C9003387C5404A9742074183269755
:1010B000E34CB7F43309F600330999404209135958
:1010C00009016364C900E341B9F4B305B940139958
:1010D0000501135909010DBF1D8F4207418335B723
:1010E00083CB06004E85E285B30C7041B37C9B0137
:1010F000938AFBFF6686B3FA6A0136C493FAFA0F45
:10110000EFF00FE2A2463385990163850A08B38B9D
:101110005B415E87C20B93DB0B0163737401228713
:10112000937BF70F9309C10133867A01CE8536C6CA
:101130002AC4EFF0EFDE2245B2465E8B11058147EF
:101140003387F900034707003386970162968507C6
:101150002300E60013F7F70FE36457FF0147137608
:10116000F70F83270A00636D760133076441131478
:1011700007014180B3857701E30104EC228665BD58
:101180003386EA004E9603460600BA970507238089
:10119000C700F1B783250A00C5B763689B002686A0
:1011A000CE856285EFE0DFF649BD5A86CE85628541
:1011B000EFE01FF603250A002286B3856901DDB73B
:1011C000814461BD797122D406D626D24AD04ECE52
:1011D0008347150015472A84F91793F7F70F6366BD
:1011E000F704172700001307E7B78A07BA979C434D
:1011F000BA978287970700202388071C970700204B
:10120000A384071C970700202382071C9707002050
:10121000238D071A19A89707002083C7E71A95C3DB
:101220008547170700202302F71A03A5818281460C
:10123000A285035645007DA89707002083C7C718DD
:10124000F1F7B250225492540259F249456182801A
:1012500063F7E40A3387340383270900BA97D5E795
:10126000850493F4F40F03C741829307170093F7A3
:10127000F70FE3EFF4FC9707002083C70715A1C31E
:1012800097070020238307148347040003A5818266
:1012900081462302F1009547A302F1000356450061
:1012A0004C00210523130100231401002315010024
:1012B0002316010023170100F53111E10290970771
:1012C000002083C7C710858BADDF8347040003A5CB
:1012D0008182231301002302F1008D47A302F10054
:1012E0005C400356450023160100231701003EC44D
:1012F00081464C0021057D3129F5029099B7E31113
:1013000097F697270000938767CB9C53B1DB4C403F
:10131000034504008297A9B7814413890182930988
:10132000400291B783C7C18285072386F182F5BD4C
:101330008345450093F7F500E38907EE9704002005
:1013400093848408860713D675003387F400329798
:101350000347770183C64182637FD7049306400227
:10136000B306D70203A701823697E30007EC584F74
:10137000E30D07EABE94B29483C774021444034693
:101380005400F99BA383F40283C77402ED9BA383EB
:10139000F402034504000297E31505EA83C77402CB
:1013A00093E71700A383F40283C7740293E747000F
:1013B000A383F4029DBDE31AD7E6172700001307A5
:1013C000E7BF75B783D6019B03D7219B9305000424
:1013D000B387E6403E86C207C18363F3F5002E86DD
:1013E0008387419A4206418263D70702638CE602F3
:1013F00083A5C19A9DC901111385019006CE32C6FD
:10140000EFE01FD13246F2401305000893850190AA
:1014100005616FF08FEF014593850190E39BE6FE38
:101420008145C5BF13050008E5BF01458280411114
:101430001387419A22C426C22A844AC0B2842E89C4
:101440002146AA853A8506C6EFE09FCC23242501D4
:101450002399019A83477400834664002A87A20770
:10146000D58FA68663E3F400BE862316D70089CF06
:10147000913F01E50290014511A00545B24022448B
:10148000924402494101828003450400EFF00FEECF
:10149000CDB70545B287639FA5020347060089467D
:1014A000014515830D8B6317D7028346160063939E
:1014B000E60203475600834646002207558F9D46A5
:1014C000631AD7001306200B972500009385C5A249
:1014D0003E85B1BF82801971CAD8CED6D2D4D6D2B9
:1014E000DAD086DEA2DCA6DADECEE2CCE6CAEAC834
:1014F000EEC6138A81829D4A172900001309C98C00
:1015000097090020938949EC138BC18203240A00B8
:1015100001451C4082970356440081464C08130540
:101520008400EFF02FA41C40AA8405458297B5C023
:1015300083475101FD1793F7F70F63E4FA728A07A7
:10154000CA979C43CA97828703454101EFF0EF8E0B
:1015500023A2019A23A4019A23A6019A23A8019AFF
:1015600023AA019AE247A382F9004DB7034541013E
:10157000EFF0AF8C23A2019A23A4019A23A6019A2B
:1015800023A8019A23AA019A51B783C7C1828DE388
:101590000290F6506654D6544659B659265A965A71
:1015A000065BF64B664CD64C464DB64D09618280C3
:1015B00083C7C182FD1793F7F70F2300FB0083C792
:1015C000C182A9F7970B0020938B0BE08545238000
:1015D000BB009707002083C797E113070006938697
:1015E000419AF99BA383FB029707002083C737E04A
:1015F000ED9BA383FB029707002083C767DFF99B5E
:101600002384FB029707002083C787DEED9B23849A
:10161000FB02834741013EC423AA019A834781010B
:1016200093F707066394E70002909DA81307000450
:10163000639DE7002245970700009387C7E53008C0
:101640009CCA813DE31405ECA1A862477D8B63042D
:10165000B74009466307C74661FB13070002639959
:10166000E7048347C1013D47636CF702DE9783C7F8
:10167000770003C7418263FFE70013074002B38787
:10168000E70283A50182BE9581CD22453008EFE0B7
:10169000DFA94DBF9725000093854592E387E7FEBC
:1016A0000145EFE03FE613050008EFE0BFE5B9BDF7
:1016B000A5FF834791012547E368F7F61717000058
:1016C000130787728A07BA979C43BA978287E247C3
:1016D000854501459CC2F247DCC223A6019A23A896
:1016E000019A9707002023A907BE9707002023A788
:1016F00007BE9707002023A507BEEFF04FB485472C
:10170000A380FB0021B59707002083C727CC2308BF
:10171000F102054625AE034CA1019707002083C7BF
:10172000E7CA630FFC2EA5C737640040835704C483
:1017300041671307F7DFF98F2310F4C4EFE0FFD8F8
:10174000130404C09387019405477D56A145931661
:101750002700A296239006002382C700A382C70019
:1017600023830700A383070005079107E311B7FE52
:10177000EFE05FD7224517040020034434C59307E8
:10178000000C2398F180EFE05FEBA3828B002382B3
:101790008B0163070C289707002083C717C3171511
:1017A00000001305F56E971C0000938CEC6FF99BFD
:1017B000A381FB002A846375942783470400A297C2
:1017C00063E0FC2603471400AD466314D7003E8453
:1017D000DDB791476308F700029097070020238741
:1017E00007BE99B5338C8C40420C135C0C01814BC5
:1017F000138D0182930D4002A14403C741829307D8
:10180000170093F7F70FE3F9FBFC63FEEB04338754
:10181000BB0383270D00BA97E1D39C4B2245628618
:10182000A285829763FAA4066368AC062295637961
:10183000A4060347040022976364E5068347140067
:1018400095466399D70283462400170600201306A5
:1018500016B993F7F6008607B2979D82B697238054
:1018600077013A84E9B7E31977F797170000938770
:10187000E77465B79146E396D7FE83473400F5F3E6
:1018800083472400BD4663F4F6000290B1B7970683
:1018900000209386D6B3D9B7850B93FBFB0FB1BF5E
:1018A00083C74182850793F7F70FE3E5FBF02DB778
:1018B0008357A101394693D687001387F6FF137724
:1018C000F70FE36FE6DC17160000130666540A07ED
:1018D000329718433297028749469715000093853F
:1018E00065602808A936B9BB171600000356E65BE9
:1018F000971500009385455BEDB78947E392F6DACB
:101900001716000003566658971500009385C557B3
:10191000C9BF93F7F70FA1C70D476383E7061547C4
:10192000E360F7D817170000130787548A07BA97A0
:1019300080432285EF10C0309307000263F3A700B5
:101940003E851387019681470907630FF500B306AB
:10195000F40083C6060085072310D700F5B7930768
:1019600090402391F19605451306150006064206A0
:10197000418293850196936706302390F50095B7D1
:10198000B7F7FF1F83A7877E938B019681443ED0D4
:10199000B7F7FF1F83A7C77E130C0102B14C3ED2DD
:1019A000B7F7FF1F83A7077F3ED441469715000076
:1019B0009385C53C0818EFE0AFF5B3079C0003C45E
:1019C0000700180841469377F40093870703BA97F6
:1019D00083C707FF971500009385453A081823929F
:1019E000FB00EFE0EFF2118493070403180833843F
:1019F000E700834704FF8504910B239FFBFEE396DA
:101A000094FB614595B70357A1018547E31AF7C8D1
:101A10009707002083C7779B93E72700A381FB00EC
:101A20002808EFF08F95DDB40357A1018547E3192E
:101A3000F7C69707002083C75799F59BC5B7970747
:101A4000002083C797982318F10209460C1828082C
:101A5000EFF0FF9D65BC8347C1013D47E362F7C4DA
:101A6000DE9783C7770003C7418263F2E704130759
:101A70004002B387E70283A50182BE95E38205C2D7
:101A800022453008EFE06FEAE31205A883478101A1
:101A900093F70706E39607C023AA019A83479101AB
:101AA0002947638DE7002D47E38CE7F6D5BEE39920
:101AB000E7BE9715000093856550D9B7230801024A
:101AC00089B90345C10113778500E31F07B4137477
:101AD000F5000604135C750033878B00629703479B
:101AE000770183C64182637BD702930640023307A6
:101AF000D70283A50182BA95E39807B8834791017D
:101B0000854613F7D70F6300D702E39F07B05E94B3
:101B10006294834774028583F58F35B7630FD724AA
:101B20008145E9DFB5BE8356A101C5E66396E70CA2
:101B3000B3068401920617F7FF1F1307E77836975D
:101B40008346E70037670040130707C08A06BA9646
:101B500003D70600216613060608518F6319FC0897
:101B6000A5679387F7FB13060004D18FF98F13F64F
:101B7000076013070040630AE600314663030C0068
:101B8000114609473317C700B98F37E700E013073D
:101B90000718214823220701414548C3370600049E
:101BA000C20750C3C1832390F600B7E700E09387D4
:101BB000071023A20701C8C35E94D0C36294834771
:101BC0007402F59BA303F40283477402F99BA303F9
:101BD000F402E38D059222453008EFE00FD523AAE9
:101BE000019A83A78B02858BE392079215BDB1679B
:101BF0009387F7F8116695BF5E9462942EC6EFE066
:101C00007F9083477402B24593E72700A303F40251
:101C10008347740293E71700A303F4025DBF834573
:101C2000810113F6F5009317160093D67500CE9731
:101C3000B69703C77702799BA383E70203C77702AE
:101C40006D9BA383E7026318060C938B419A83A7CD
:101C50000B008344410172449D83858B6388F604A5
:101C600001C402906FF09F8A83C7419A93F7F707E8
:101C700091EF03C7519A9547631AF70003C7619A1A
:101C8000B7670040136707082396E7C421468545D8
:101C90000145EFE02FCA83A70B01E389078613866E
:101CA000419A8D45268582976FF05F868387419A9A
:101CB00063CB070003A58B00E30A05842286938586
:101CC0000190EFE0EFC483D7219B03A78B00A2977D
:101CD0002297C20723A4EB0003D7A19AC1832397BD
:101CE000FB006306F7009307F00363E3870283A713
:101CF0000B0181EB03C5419AEFE05FE7E318058034
:101D00008DB71386419A89452685829765F551BA24
:101D1000EFF04FEBE5B783C7770103C7418263F468
:101D2000E702130740023387E70283A70182BA97CD
:101D3000E38007869C4FF24603469101034541012B
:101D400082976FF0AFFCE395E784971700009387C5
:101D5000E726CDB797F7FF1F83C707676FF00FFB25
:101D6000E247638507FA724582976FF02FFA97F77B
:101D7000FF1F83C7C7656FF06FF997150000938544
:101D8000E523E39407909DBB5D71A2C486C6A6C2FD
:101D9000CAC097F7FF1F83C7C749368489E917F779
:101DA000FF1F03478747D98F95C3014511A8638F4C
:101DB000F50097F7FF1F83C7474601456384B73E89
:101DC000B6402644964406496161828097F5FF1F1C
:101DD00083A5854699C9131604018146418217F5EA
:101DE000FF1F1305A545EFF0EF9B1304F0039304C9
:101DF000F00F29A0638D9500EFF0EFED97F6FF1F30
:101E000083D6064497E5FF1F83C54521368597F79E
:101E1000FF1F83D7274317F6FF1F0356C64263C32E
:101E2000C706918FC207C1832A8763F3D7003E8715
:101E300042074183E370E4FC8146130600048A856F
:101E400017F5FF1F1305853FEFE0DF91EFE0DFDCC3
:101E500017F7FF1F130707383A851306000481455B
:101E6000EFE00FAA83460100A1472A8763E5D73236
:101E700017160000130686FD93972600B2979C4321
:101E8000B297828713971600118FBA9761BF856743
:101E900085072310F500414697150000938545EF0F
:101EA00017F5FF1F13052533EFE08FA61306000477
:101EB000814697F5FF1F9385E53117F5FF1F130541
:101EC0006536EFF02F8E97F7FF1F83D7273617F66B
:101ED000FF1F0356C63517F7FF1F0357E73463CEBE
:101EE000C72A918FC207C18317F6FF1F0356063317
:101EF000BA8663F3E700BE86C206C18263F4C600F9
:101F00006374C700EFE0FFDEEFE0BFDE19A2924787
:101F1000824693958701A182D58D93D6870083470A
:101F20008100E207D58F33E6F5001376F60F21E244
:101F3000370867451308381293D687003795EFCDD9
:101F4000B727024023A207011305B59AC8C323A2ED
:101F50000703C8D313051003C8C701753703020070
:101F60007D15639AC600944B2166D18E94CB85472C
:101F70002300F70025BF83A80701131886002E98B9
:101F8000B3E8680023A8170123AA070103A80701E3
:101F90001368080423A8070103A8C70013781800D2
:101FA000E31C08FE03A8070105063378A80023A850
:101FB000070145BF9247834481000247139487017C
:101FC000E204A1832183DD8C8D47598C13898181A3
:101FD000639DF60005669305F00F17E5FF1F1305D7
:101FE000651F23208900EFE0AF91832709001D8C36
:101FF00033898400856763EC270117E5FF1F13050C
:10200000651D2686930591002295EFE06F9023AA27
:102010002181EFE07FC0054565B337066745B727E7
:10202000024013063612B796EFCDD0C39386B69A08
:10203000D4C3D0D3D4D393061003D4C783AE818145
:1020400083A84181C175014617EEFF1F130E8E183C
:10205000416F930F0010B7022000FD153303C60136
:10206000636B1601944B2166D18E94CB23AC018017
:1020700023AA0180EDBD944B3385CE00137505F086
:10208000B3E6E60194CBD447858AF5FED447898A26
:10209000F5FE3308D300832308003388A6002320ED
:1020A000780003A8C70013782800E31C08FE9106F7
:1020B000E391F6FF944BB3E6560094CBD447858A60
:1020C000F5FE944B13060610ED8E94CB41BF92475C
:1020D000824613968701A182558E93D68700834747
:1020E0008100E207D58F9306E00363F3F600B6871D
:1020F00085462300D700A300F70097F6FF1F9386BD
:10210000660D01478506E383E7DAB305E60083C57C
:1021100005000507A380B600F5B7B707EFBE37E7A0
:1021200000E0938707083CC701A09247034681005F
:102130008246139587016206A183A1825D8E0568A0
:10214000C167558D8145FD17130818026319B60044
:10215000930610202310D7002311F70081BBB3068C
:10216000B50083C60600A148A206B58FC207C18389
:1021700093960701C18663DD06008606B3C6060195
:1021800093970601FD18C183E39408FE85057DBF82
:102190008607C207C5BF8947E1BB93161700918E1A
:1021A000B69789B3EFE0FFB4E31705E617F7FF1F13
:1021B0000357C70797F7FF1F83D76707E31DF7E4A8
:1021C000E30B04E497F7FF1F83D74705FD17E18F63
:1021D000E39307E417F5FF1F13050504EFE02F83D2
:1021E000E30B05E2814517F5FF1F1305E502EFE05C
:1021F0007F9AE31205E2029039BD797122D4371437
:1022000002405C5006D626D24AD01397570063444A
:102210000700EFE00FB85C4C37070018D98F5CCC93
:10222000377700401C4393E707101CC302C2130713
:1022300007C03AC21247130787023AC2924703D730
:1022400007009167938707171314070141806314F0
:10225000F700EFE00FB49307800873B00780B7E78B
:1022600000E0056723A0E710B7F700E023A0070010
:1022700023A20700814694C701475D66D8C71306AD
:10228000F66F90CB8146D4CB3D4798C3B71402403C
:102290009C4C280093E747009CCC85472314F10011
:1022A0003EC6D1473EC8EFD03FFC9C4C1167480862
:1022B000D98F9CCC93070060231AF1008D473ECC48
:1022C000E1473ECEEFD05FFAB747014003D7078121
:1022D000F576FD16758F2398E78003D7C780FD76C6
:1022E0009386369F758F1367C7002396E78003D7C1
:1022F0004781C1669386F6CF758F239AE780D840D1
:10230000B7177A00A146318B938707206316D7044D
:10231000DC40D840C166C983BD8B758F8907C5462F
:102320006393D700C94701EF37470240032707806F
:10233000418B09CF37177A001307072021A83717D9
:10234000024058439316E700E3D606FE37173D00D8
:1023500013070790B387E702371702405443171655
:1023600000001306A6C49182BD8AB29603C506007A
:102370005443B3D7A700A1829D8AB29683C60600B4
:102380005443AD829D8A3696834506005443138696
:10239000C180B3D7B700B9828D8AB29683C60600D2
:1023A00013064006E546B387D702B71607009386A3
:1023B0000680B3D7D702B3D6C702B3F7C7029206D7
:1023C000920793872703B3D7C7020966BD8BD58FC2
:1023D000C207B7460140C1832394F68083D7C680E5
:1023E000D18F2396F6805C43B70640FFFD16F58F2C
:1023F0005CC35C43B7064000D58F5CC35C4FB70637
:102400008000D58F5CCF5C4B8566D58F5CCB930706
:10241000800873A007801C4F480893E747001CCF33
:1024200093070012231AF1008D473ECCC1473ECEE0
:10243000EFD09FE3B717014093870780130700028F
:1024400098CB1307001098CB916793870717631FEA
:10245000F410EFE00F940145EFE06F813777004013
:102460001C43B716024093F7F7EF1CC3DC4E370747
:1024700000E87D17F98FDCCEB7270240984BB706EE
:1024800000FFFD16758F98CB984BB7064000558F0F
:1024900098CB17E7FF1F034767B89307F00F631048
:1024A000F71213067003814517F5FF1F1305C5F1D9
:1024B000EFD01FC52386018297E7FF1F239D07B436
:1024C00097E7FF1F239807B497E7FF1F938787B30A
:1024D00023A4F18201442382018223A001829384F8
:1024E00001821309400203C741829307170093F743
:1024F000F70F636DF40A97E7FF1F238107B20D47BB
:10250000B76700402390E7C402CA1307700CD24794
:102510006370F714B767004003D707C4C166F516A8
:10252000758F2390E7C402C41307700CA24763762B
:10253000F712B7670040239207C4239007C423987B
:1025400007C403D707C4B966938606D0558F239076
:10255000E7C4EFD01FE6B747024093870780984350
:102560001367270098C3EFD0FFF791A819651305EB
:10257000C524E302A4EEEFD09FEFB7F700E01147C8
:1025800098C3814694C701473776DC02D8C7130643
:1025900006C090CB8146D4CB23A207009843136793
:1025A000170098C3D843058B75DF65B56375E408DC
:1025B000330724039C40BA97C9E70290029037443E
:1025C0000F009304F07C1309703E130414A71385C5
:1025D000C1831388818317EFFF1F034F2FA40C4182
:1025E0000327080083C6618383C7518337160140E0
:1025F0008148938F01831306068013030002130E94
:102600000010930EF00F83A20F00639DB20463F2DB
:10261000F608232866002328C601E306DFFF638946
:102620000800A38AF1822320E800238BD1820CC109
:10263000EFE07FEA69BFE31287F8971700009387FE
:10264000E797DC43BDDB050482971374F40F61BD8B
:102650000100D24785073ECA5DBD0100A24785073C
:102660003EC4E9B5850605079D8A63E1E402BA87A1
:102670006374E900B387E440B387F70285058548B2
:102680008E07B3D7870293F7F70F41B7014781470A
:10269000E5B7232A6600232AC60141B73571BED8A3
:1026A000B7670040BADA03D747C4D6CC06CF931A2F
:1026B000070116CD1ACB1EC922C726C52AC32EC1B3
:1026C000B2DEB6DCC2D6C6D4CAD2CED0D2CEDACA38
:1026D000DEC8E2C6E6C4EAC2EEC072DE76DC7ADAB2
:1026E0007ED81377072093DA0A011DC3938707C0AA
:1026F0001307F0DF2392E70483D787041307003022
:10270000481093F7F77F2312E1023ED4EFE09FAB2E
:1027100093F70A40A5C3B76700401307F0BF2392A1
:10272000E7C4EFD01FC99307001048102312F1022D
:1027300002D4EFE03FA93A44FA40EA425A43CA437E
:10274000AA441A458A457656E6565657C65736580D
:10275000A65816598659764AE64A564BC64B364C09
:10276000A64C164D864D725EE25E525FC25F0D61F1
:102770007300203093973A0163DD0702B76700408A
:1027800003D707C4C166ED16758F2390E7C403D73E
:1027900007C4C166DD16758F2390E7C47D777D176A
:1027A0002392E7C44810930700502312F102EFE090
:1027B0007FA193974A0163DC0702B767004003D704
:1027C00007C44810136787002390E7C403D707C4E2
:1027D000136747002390E7C47D771307F77F2392A1
:1027E000E7C4930700402312F102EFE0BF9D93F787
:1027F0000A1095CB83C7C1810547639FE700376700
:102800000040835607C441663D16F18E2310D7C49D
:10281000FD17238EF18011A0E5FFB7670040130775
:10282000F0EF2392E7C48567938707803EC6E5777C
:102830009387F7F83EC417FDFF1F130DEDA8B76B84
:102840000040617C93890BC0130C0C0883D74904AA
:10285000C207C18763CC070093971A01E3DD07EC39
:102860000290F177FD172392F904F1B503D94904D9
:102870001379F900131429004E9483570400939C94
:102880000701C207C18793DC0C0163D10706B24779
:10289000B3F7FC006382071093174900DE9783D4D7
:1028A000C70003D58700814693F4F43F06052686CA
:1028B0006C085E95EFD0DFE683570400224721467F
:1028C000F98F0567B3E787011307F7F8F98F23102E
:1028D000F400639DC40A72479307006048103AD41D
:1028E00002572312F1023AD6EFE0DF8D93FC0C0879
:1028F000E38E0CF48357040065771307F7F8F98F1C
:10290000617713070708D98F25671307F7F0F98F49
:102910002310F400035704009305004017F5FF1F30
:102920001305859A931707011376F70093760760CE
:10293000C18313175600639DB602B306E50083C535
:10294000F601E38E05EE9983858BA38F060093C76E
:10295000170093161900B6978E07B7660040B69712
:1029600083D64700C165938505C0ED8E2392D700BD
:10297000B307E50083D6A70183D78701638ED712FB
:102980004107CA853A95EFD07FF955BD029085453C
:102990000145EFD02FFA99BF835704002247F98FE2
:1029A00005671307F7F8B3E78701F98F2310F400E1
:1029B000035A040093070040054793140A01937DCE
:1029C000FA00137A0A60C1806317FA0013D7E40093
:1029D000058B1347170093171900BA978E07DE97D8
:1029E00003D74700139B5D0083D707001377F73F9A
:1029F0003AC233076D0148438607DE9735C1124658
:102A000009475410BE852302E10202D4EFE08FD9BA
:102A100033076D018357A70092460356C700B69748
:102A2000C207C1832315F70063E6C600035787007A
:102A300063E2E70485454A853EC2EFD0AFEF924797
:102A40001307007048106A9B2312E1022304B103AC
:102A50003ED6A3040102EFE0EFF623240B0079B584
:102A60008355A700184312468146BA953E85EFD09C
:102A70003FCB79BF930600406301DA02B307F7400A
:102A80003E87C207C1836373F600328713160701BE
:102A9000418285454A85EFD0EFE9F1779387F7F8D2
:102AA000FD8CE17793870708DD8C8D67BD8CC204B0
:102AB000C180231094001DBD13070070136606F833
:102AC00048102312E1022304C1023ED6A3040102EE
:102AD000EFE04FEFADB3397106DE16DC1ADA1ED81F
:102AE0002AD62ED432D236D03ACE3ECC42CA46C8AE
:102AF00072C676C47AC27EC0EFF05FBAF250E2527C
:102B00005253C2533255A255125682567247E2476B
:102B10005248C248324EA24E124F824F216173007A
:102B20002030397106DE16DC1ADA1ED82AD62ED4E9
:102B300032D236D03ACE3ECC42CA46C872C676C4ED
:102B40007AC27EC0EFF09FB5F250E2525253C253A8
:102B50003255A255125682567247E2475248C24831
:102B6000324EA24E124F824F21617300203073000B
:102B700020307300203041113AC63EC4B7F700E060
:102B800023A20700138701831C4385071CC3324718
:102B9000A247410173002030B71702409843B7069F
:102BA000FFF81367170098C3D843758FD8C39843AD
:102BB000B706F7FEFD16758F98C39843B706FCFF5E
:102BC000FD16758F98C3D843B70681FFFD16758F24
:102BD000D8C337079F0098C73747024013070780BD
:102BE000144393E6060114C3D843B706C1FFFD168C
:102BF000D8C3D843D8C3D84313670740D8C3D843F2
:102C0000758FD8C3D843B7062800558FD8C39843CB
:102C1000B7060001558F98C3984393166700E3DD0C
:102C200006FED843B7160240719BD8C3D84313673A
:102C30002700D8C32147DC42B18BE39EE7FE8280A8
:102C4000AA8703C7070085076DFF3385A7407D1559
:102C5000828001A0171500001305C53A0841B7E5A9
:102C600039E3938595336305B504371502404C511C
:102C7000960563C405006F10A0384C4D3706001848
:102C8000D18D4CCD377500400C4193E505100CC13A
:102C9000B7760040938686C283D506001166130678
:102CA0000617638DC50819661306C6246382C5001E
:102CB00097E1FF1F938181B6172100201301813412
:102CC000170500001305C53197D5FF1F9385853380
:102CD0001386018163FAC5008322050023A05500F5
:102CE00011059105E3EAC5FE1385018197E5FF1FF4
:102CF000938505716377B500232005001105E36D09
:102D0000B5FEFD42739002BC8D42739042809302E7
:102D100080087390023097D2FFFF9382E22E93E2F5
:102D2000320073905230EFF03FE797F2FFFF93824B
:102D3000024D739012347300203001A023900600DE
:102D4000377500400C4193C505100CC13715024082
:102D500071050C4137060018B18D0CC16F10402A67
:102D600094E4FFFFB8E5FFFFB6E4FFFFD8E4FFFF00
:102D7000C4E5FFFFD0E5FFFF30313233343536375D
:102D8000383941424344454600000000574348203B
:102D90004348333256323033433854360000000053
:102DA0005743480043415420426F6F746C6F616415
:102DB0006572000048494420426F6F746C6F616413
:102DC0006572000084E7FFFFA8E7FFFFAAEFFFFF9F
:102DD00090EFFFFF90EFFFFFC6E7FFFF5AEEFFFF08
:102DE0009CEFFFFF5AECFFFF44ECFFFF44E8FFFFBE
:102DF00022ECFFFF44E8FFFFEAE8FFFFCCEAFFFF19
:102E000044E8FFFF22E9FFFF32E9FFFFCCEAFFFFC2
:102E1000EEEAFFFF06EBFFFF94E8FFFF94E8FFFFF9
:102E200094E8FFFFEEEAFFFF94E8FFFF94E8FFFF5E
:102E300094E8FFFF94E8FFFF94E8FFFF94E8FFFFAA
:102E400094E8FFFFDCEAFFFF26F1FFFF46F0FFFFFB
:102E5000C6F0FFFF6CF1FFFF6CF1FFFFD2F1FFFF47
:102E600086F2FFFFD2F2FFFFE2F2FFFF2000002018
:102E7000A02D0000A42D000000000000B42D0000D3
:102E8000A42D000009022000010100803209040085
:102E90000002FF0000050705010240000007058150
:102EA00002400000050F3900021810050038B6086E
:102EB00034A909A0478BFDA0768815B665000101ED
:102EC000011C100500DF60DDD88945C74C9CD26528
:102ED0009D9E648A9F00000306B20002000000006D
:102EE000120101020000004055F085650001010259
:102EF000030100000A00000000000306B200080001
:102F000001000000A800080002000000A00014005A
:102F1000030057494E5553420000000000000000D6
:102F200000008400040007002A00440065007600C9
:102F300069006300650049006E007400650072005E
:102F400066006100630065004700550049004400C9
:102F50007300000050007B00390037003500460048
:102F600034003400440039002D00300044003000AB
:102F700038002D0034003300460044002D00380096
:102F80004200330045002D0031003200370043007D
:102F90004100380041004600460046003900440028
:102FA0007D0000000000000000000000010203049A
:102FB000010203040607080900000000C005000024
:102FC0002601000014060000C20D0000921400004B
:0C2FD000881D0000000000000000000050
:102FDC00FE0400000C00000058000020C00000009F
:102FEC000000000000000000FF00000000000000D6
:082FFC000904000002040608AC
:00000001FF
