:040000006F308001DC
:100004000000000000000000163000001630000060
:100014000000000016300000000000000000000096
:100024001630000016300000000000000000000040
:10003400E22F000000000000163000000000000065
:100044001630000016300000163000001630000094
:100054001630000016300000163000001630000084
:100064001630000016300000163000001630000074
:100074001630000016300000163000001630000064
:10008400163000001630000016300000422F000029
:10009400102B00001630000016300000163000004F
:1000A4001630000016300000163000001630000034
:1000B4001630000016300000163000001630000024
:1000C4001630000016300000163000001630000014
:1000D4001630000016300000163000001630000004
:1000E40016300000163000008E2F0000DA2F0000BA
:0C00F400DE2F0000163000001630000067
:100100002A8311C62300B3007D16050365FE828095
:100110002A8309CA83830500230073007D16050323
:1001200085056DFA82800545828005458280DC491F
:10013000854523A4F19A82879307E00363FEC702F3
:100140007D0615821376F60F0547B307E640AA072A
:100150003E07D98F93D6A7001397070193F6F603AE
:10016000418391E221670605AA958E05B767004095
:10017000AE972392E7008280050605821376F60F7C
:100180000147E1B79356750013874193854E9378E5
:10019000F50081473A861303F00F33CFD601214E85
:1001A0003308D7000348280013F5F70F630B080046
:1001B000034817006318B8040348070063141805C0
:1001C0008280639AD5011398270032987A98034861
:1001D00028006319080203480700630468006313DA
:1001E000180303481700631D68008A07B29723802D
:1001F0001701A380B7000547B6972381E7008280E7
:10020000E305B8FE85071107E39CC7F90290014595
:1002100082809307E00363FAA7029307F5019583B1
:1002200093F7F70F13070002B387E70203D50181A5
:10023000AA97C207C1832398F18013070020637532
:10024000F700029041657D15828093071500858334
:1002500093F7F70F0947C9BF4111B767004006C6BA
:1002600022C426C2239607C493864195938741935F
:100270007D572380E700A380E70023810700A38147
:1002800007009107E397D7FE130400048145014559
:1002900023988180C53D814513050008E535938786
:1002A000C1B2228523968700239E8700238D01B249
:1002B000238501B4B93F931405012285993FB7679F
:1002C0000040C18042052394970041812390A700FC
:1002D00003D407C0214685450145BE84B13D420493
:1002E000DD779387070741807D8C89679387072295
:1002F0003D8C239084C0B24022449307000823968B
:10030000F4C49244410182801C4513F7070193F520
:10031000F70019C35841D98D37270240185B93560F
:100320008701BD8A81E605472388E18203550500E0
:100330001377F50F39CB3717014003270780814624
:100340000543130E8002BD4E130F8004A1483316DF
:10035000D3003378C50063130603639BC7093718BE
:100360000140232AC880139626003398CE001348F4
:10037000F8FF3377E8003396C500518F8506E39880
:1003800016FDB716014023A0E6801307F00F637037
:10039000A70637170140130707805443014605435A
:1003A000130E8002BD4E130F8004A1481307860070
:1003B0003317E3003378E500631307036391C70540
:1003C00037180140232AE880131726003398EE00DF
:1003D0001348F8FFB376D8003397E500D98E0506A9
:1003E000E31616FDB717014093870780D4C38280B8
:1003F000E39BE7F7371801402328C880ADB7E395A2
:10040000E7FD371801402328E8807DBF4111377789
:10041000004002C6130707C03AC6324713078702D7
:100420003AC6B24788C3410182808347150085EFF1
:100430008347250093F6F70013D7770086069717B2
:10044000002093876704B697BA9703C7770209839A
:10045000058B11CB03C77702058B11E703C7770222
:100460006D9BA383E7028280B7E700E0214723A2C8
:10047000E718414723A2E7183707000423A2E7182B
:100480008280B7E700E0214723A2E710414723A27B
:10049000E7103707000423A2E710828011C1D5B707
:1004A000E1B7135675003D8906053295120593870D
:1004B000C1B2AA9783C6E700B7670040938707C019
:1004C0008A06BE9683D70600617713070708C2071E
:1004D000C18321C665761306F6FBF18FD98FC2075B
:1004E000C183114837E700E013070718214548C3C7
:1004F000C1454CC33706000450C3054733170701F5
:10050000B98FC207C1832390F600B7E700E0938755
:100510000710C8C3CCC3D0C3828071761306F6F827
:10052000F18FD98FC207C18331486DBF1377F500B2
:10053000060797170020938727F51D81BA97AA977A
:1005400003C5770205891DE503C777020983058B7B
:100550001DE303C57702058911ED03C777020983FF
:10056000058B11EB03C77702054513674700A3838B
:10057000E702828001458280AA870345250009C5DC
:1005800083C7170091E35DB701458280011106CE54
:1005900022CC26CA4AC84EC652C456C25AC00344C8
:1005A00025009377840089CF02900145F240624490
:1005B000D2444249B249224A924A024B05618280A2
:1005C0000349550083453500834745002A8A22099F
:1005D0008D8922853369F9007536B76700409387A6
:1005E00007C0931A2500BE9A83D70A00A1645D77DD
:1005F000130707079379F40093840408F98FB3E491
:100600009900DD8C83473A0009472A8B8D8B6387DD
:10061000E7000D47E39AE7F893E404601379F97F64
:100620004A85C53E1D801347140093171B00BA97D7
:1006300042058E07376700408609BA974181A29923
:100640002390A70092099387C1B2CE9723962701E2
:1006500023876701B14711C0914709473317F70056
:10066000258F9377F7F801C4E577FD17F98F37E702
:1006700000E013070718A1454CC3414650C3B70615
:100680000004C20754C3C1832390FA00B7E700E017
:1006900093870710CCC3D0C3D4C3054501BF91676E
:1006A0009843B7E739E3938797336307F70241111C
:1006B000B7170140938707801307000206C611652C
:1006C000D8CB130505179933B707EFBE37E700E01E
:1006D000938707083CC701A08280797106D622D48F
:1006E0009307800873B00780B7E700E0056723A091
:1006F000E710B7F700E023A0070023A20700814618
:1007000094C701475D66D8C71306F66F90CB814644
:10071000D4CB3D4798C3371402401C4C93E74700A5
:100720001CCC8547231AF1003ECCD1473305F1009C
:100730003ECED93E1C4C11672800D98F1CCC9307A4
:1007400000602314F1008D473EC6E1473EC86D3E70
:10075000B747014003D70781F576FD16758F2398BB
:10076000E78003D7C780FD769386369F758F136722
:10077000C7002396E78003D74781C1669386F6CFEB
:10078000758F239AE7805840B7177A00A146318BBE
:10079000938707206316D7045C405840C166C9831D
:1007A000BD8B758F8907C5466393D700C94701EF95
:1007B0003747024003270780418B09CF37177A005C
:1007C0001307072021A83717024058439316E70064
:1007D000E3D606FE37173D0013070790B387E702FD
:1007E000371702405443173600001306E6B39182D0
:1007F000BD8AB29603C506005443B3D7A700A182B1
:100800009D8AB29683C606005443AD829D8A369671
:100810008345060054431386C180B3D7B700B9821D
:100820008D8AB29683C6060013064006E546B38756
:10083000D702B716070093860680B3D7D702B3D680
:10084000C702B3F7C7029206920793872703B3D76D
:10085000C7020966BD8BD58FC207B7460140C18369
:100860002394F68083D7C680D18F2396F6805C438D
:10087000B70640FFFD16F58F5CC35C43B70640002A
:10088000D58F5CC35C4FB7068000D58F5CCF5C4BC7
:100890008566D58F5CCB9307800873A00780B25024
:1008A000225445618280938701B223A0070023A2CE
:1008B000070023A4070082800145F5B79387C19AFA
:1008C00041111306400B81453E8506C6EFF05F835C
:1008D0002319050223180502B240138701A218D577
:1008E000231D0500130700049386019E2316E502CD
:1008F0002311E50214C9231AE500231C0500231562
:10090000E500410182809387C19A239907022398C9
:100910000702239D070023900700238F0700239CD5
:100920000700238307008280011122CC26CA4AC80F
:100930004EC652C456C206CEAA8401440549973910
:1009400000009389A9AA138AC181930A400283C730
:100950000182138727001377F70F6365E4041306FA
:100960007003814517150020130505B2EFF04FF90C
:1009700041469305F00F17150020130555B1EFF010
:100980002FF86244F240D2444249B249224A924A84
:1009900041469305F00F17150020130555B005616A
:1009A0006FF00FF66372F4023307540383270A00D3
:1009B000BA9795E70290F2406244D2444249B24964
:1009C000224A924A05618280B307F44093F7F70FF9
:1009D000E362F9FEB307F04093F74702CE97DC4796
:1009E0002685050482971374F40F95B70111171724
:1009F0000020130767A522CC130600042A84814532
:100A00003A8506CE26CA4AC84EC6EFF06FEF834637
:100A10000400A1472A8763E3D70A172600001306BC
:100A2000267593972600B2979C43B2978287856775
:100A3000938717C02310F500314697250000938552
:100A4000A56E17150020130545A0EFF06FEC1715E4
:100A500000201305659FF2406244D2444249B249E6
:100A600005618280834624008347140003464400C6
:100A7000A206DD8E834734006206C207D58F5D8EE5
:100A80008347640083465400A207D58F83467400D1
:100A9000C206DD8E83478400E207D58FB365F6007A
:100AA00093F5F50FA9ED89CFB306F60037050008D9
:100AB0006378D500B74600086374D600894789A0DB
:100AC000370867451308381293D687003795EFCD5E
:100AD000B727024023A207011305B59AC8C323A272
:100AE0000703C8D313051003C8C7017537030200F5
:100AF0007D15639AD500944B2166D18E94CB8547A2
:100B00002300F700A9B783A807011398850032983E
:100B1000B3E8680023A8170123AA070103A8070167
:100B20001368080423A8070103A8C7001378180056
:100B3000E31C08FE03A8070185053378A80023A855
:100B4000070145BF03472400834714008344440042
:100B500022075D8F83473400E20403498400C20703
:100B6000D98F03476400DD8C834754002207620954
:100B70005D8F8347740093898181C207D98F336960
:100B8000F9008D47639DF60005669305F00F170584
:100B900000201305658B23A09900EFF06FD683A783
:100BA00009009D8CB3099900856763EC370117052F
:100BB0000020130565894A86930594002695EFF079
:100BC0002FD523AA3181014579B583A5418103A59C
:100BD000818199C9B307B500B706000863F6F6002E
:100BE000B7470008E36CF5EC37066745B7270240C6
:100BF00013063612B796EFCDD0C39386B69AD4C3F8
:100C0000D0D3D4D3417893061003D4C70146970EAE
:100C10000020938E6E83416F930F0010B702200067
:100C20007D18330ED601636BB600944B2166D18ECE
:100C300094CB23AC018023AA0180D1B5944BB30897
:100C4000C50093F808F0B3E6E60194CBD447858A53
:100C5000F5FED447898AF5FE3303DE0083230300C3
:100C6000338316012320730003A3C70013732300EB
:100C7000E31C03FE9106E391F6FF944BB3E65600A6
:100C800094CBD447858AF5FE944B13060610B3F631
:100C9000060194CB79B783462400834714000346AA
:100CA0005400A206DD8E83473400C207D58F8346E9
:100CB0004400E206DD8E83476400A207D18F03461D
:100CC000740042065D8E83478400E207D18F1306CD
:100CD000E0036373F600B28705462300C700A30054
:100CE000F700170600201306267601470506E38065
:100CF000E7D6B305D70083C505000507A300B600F6
:100D0000F5B7B707EFBE37E700E0938707083CC7A2
:100D100001A0834624008347140083454400A206B3
:100D2000DD8E83473400E20503468400C207D58F79
:100D300083466400DD8D83475400A2066206DD8E83
:100D40008347740005680145C207D58F5D8EC16772
:100D5000FD17130818026319A6009306102023102C
:100D6000D7002311F700E5B1B386A50083C60600BE
:100D7000A148A206B58FC207C18393960701C18619
:100D800063DD06008606B3C6060193970601FD18CB
:100D9000C183E39408FE05057DBF8607C207C5BF72
:100DA000011122CC06CE2A84094799C203C7060046
:100DB000637FE60009CA680002C6EFF06FB583578B
:100DC000C1002310F400F24062440561828083C7B1
:100DD000150083C60500198EA207D58F4206231081
:100DE000F400BA9541821104E1B7AA8709472E851C
:100DF00099C203C70600637FE60015CA83D70700C0
:100E000001116C0006CE2316F100EFF06FB0F24036
:100E10000561828083D60700198E42062300D50023
:100E2000A182A300D50041823A959107E9B782805B
:100E30005D71035885004EDEAA890355A500CAC01E
:100E40002E891317050193150801A2C4C18141839E
:100E500086C6A6C252DC56DA5AD85ED683D7490077
:100E60003384E5406356A80013941700198C2E9420
:100E70004204418031C863FB870063E5F5089D8D1E
:100E80001397050141832395E9003E84B28563737E
:100E9000C400A2851394050141806377F70603AB74
:100EA0000900B304F440338AE740BA94420AC2040A
:100EB000135A0A01C180B305EB006386061063690B
:100EC0008A0422864A85E93D83D6A90003D74900D2
:100ED000B3878600C207C183060763E4D70063C5F2
:100EE000E700998FC207C183B64022852644239527
:100EF000F90096440649F259625AD25A425BB25BF3
:100F000061618280BE95ADBF1D8F4207418371B77D
:100F100083CA06004A8536C6B30B5041B37B7A01BB
:100F20005E862EC4B53D9387FAFFB3F747015E99FD
:100F300093F7F70FB2464A85A5CBB38AFA40568796
:100F4000C20A93DA0A01A24563F354012687131AF1
:100F50000701937AF70F135A0A0101471308C101D9
:100F6000330677012E96034506003306E800050791
:100F70002300A6001376F70FE364F6FE014713760D
:100F8000F70F63675603137AFA0F338647014A85D2
:100F9000C28536C43135338A4441A24693140A01CE
:100FA00013054900C180569B85D02686DA8521BF6E
:100FB0003306EB00834506003386E70042962300A4
:100FC000B60005076DBF63678A0022864A85EFF089
:100FD0002F94DDBD52864A85EFF08F9383A50900DB
:100FE000268633054901E5B70357A50083578500D9
:100FF0008356C5007971998F3E86C20726D206D6E0
:1010000022D44AD04ECE52CC56CA5AC8C183AA84E2
:1010100063F3F6003686B7670040938707C0139ADC
:1010200025003E9A835A0A00A1679387070833E98F
:10103000FA009319060193FA0A609307004093D9C6
:101040000901014B6396FA00135B6900137B1B00D7
:1010500013941500B3076401B76600408E07B69776
:1010600003D50700DC4006053695D1CB0947AA8594
:1010700034004E863E852304E10002C6553B83D7EB
:10108000A4005A940E04CE97376700402297239508
:10109000F40083574700C166938606C0F58F13F6A8
:1010A000F93FD18F2312F70013070040934709033C
:1010B0006395EA000547A387E40065771307F7FB0C
:1010C000F98F37E700E013070718A1454CC34146E5
:1010D00050C3B706000454C32310FA00B7E700E07A
:1010E00093870710CCC3B2502254D0C3D4C39254B8
:1010F0000259F249624AD24A424B456182808C4091
:1011000081464E86BA9569399DBF131715002E97F3
:101110009386C1B212073697AA870345E7000547B1
:1011200096076397E500C107AA853385F6006DBD74
:10113000011137670040130707C026CA9314250022
:10114000BA9403D7040071761306F6F893150701D5
:10115000718F216613060608BE9622CC83D7C6007F
:101160003364C70003D7860006CEC1813A8663F395
:10117000E7003E86420693F50560930700404182F2
:101180006397F504814532C62AC4EFE0FFFA324680
:1011900022458545EFE05FFA8D673D8CB7E700E0BB
:1011A000938707182146D0C3C146D4C3370700042C
:1011B000D8C3B7E700E02390840093870710D0C31B
:1011C000F2406244D4C3D8C3D244056182808545CD
:1011D000D1B7AA873D89AE861317150093D577003E
:1011E000970700209387472ABA97AE9703C87702DC
:1011F000137818006305080002900145828003C837
:101200007702411106C6136818002E97A3830703BF
:1012100012079387C1B2BA9794C323A207002394FD
:10122000C70023950700D535B240054541018280AE
:10123000797106D622D426D24AD04ECE52CC56CA86
:101240005AC85EC662C483C755000D47639CE70059
:1012500003CB45009D49AE84B3093B03C9096371C3
:10126000360302908149B250225492540259624A84
:10127000D24A424BB24B224C4E85F24945618280A4
:1012800003C711B2138901B269FF03C40500130734
:1012900010022E9483461400E395E6FC2324890073
:1012A00003470400814A954B3A943E8A054C63C734
:1012B0006A0503C7640085476316F70083C7740097
:1012C000A301F90085472303F90083C7240003C560
:1012D00021B22300F9008327890003C7770083C761
:1012E0008700A207D98F2312F90035DD1306000409
:1012F000938501AEF93D25F90290B5B783471400F7
:10130000638477010290B1BF834734008D8BE39BE8
:1013100047FF2285EFF08FA775D58347240013D7A9
:10132000770063198701A300F90083470400850A49
:101330003E94B5BF2301F900CDBF13450508014612
:1013400081451375050871B541119387819922C4B0
:10135000AA852A8421463E8506C6EFE07FDB23244A
:10136000050023260500034504002244B240410144
:10137000E9B70347150019C3014582802E860C4545
:10138000AA8703452500A5E19378F50093961800F8
:10139000170700201307470F9355750036972E97B0
:1013A0000348770213781800630408000290E9B735
:1013B00003487702411106C613681800AE96A303CE
:1013C000070392061387C1B23697B10746852320DB
:1013D00007005CC32314C700231507003D33B24048
:1013E000054541018280B337C000B307F040FD8D51
:1013F000CDB383D7C19D83D6E19D411122C406C6DA
:1014000026C203D4819D63C0D708958FC207C183CC
:10141000014763F78700B307F4401397070141833F
:1014200083D4C19C636A97041385819CEFF0CF94A9
:1014300021C583D7C19D83D6E19D63CBD704958F0A
:10144000C207C183014763F687001D8C131704018F
:1014500041836364970483D7E19CB3049040658F14
:101460003A8463F3E7003E8442044180A2851385F9
:10147000819C013719E102900144B2402285224447
:1014800092444101828013171400158FBA97BDBF93
:1014900013171400158FBA9765B71385819CEFE079
:1014A000DFF8D9BF83D7419C83D6619C411126C206
:1014B00006C622C483D4019C63C1D706958FC20798
:1014C000C183268763F397003E87420741831DCF80
:1014D0001385019BEFF04F8A15C983A5819BA1E974
:1014E00083D7419C83D6619C63CED702958FC20778
:1014F000C183268463F397003E844204418029C05F
:10150000A2851385019BB53519E102900144B240D3
:101510002285224492444101828013971400158F42
:10152000BA9771BF13971400158FBA97C9B703D62E
:10153000619B81461385C19BEFF09F8F2A84C1B7C1
:101540001385019BEFE07FEED1B703C755009307EA
:10155000F00F6314F70C03C7A19C011126CA06CE35
:1015600022CC4AC84EC652C483C7219B9384C19AD9
:1015700015EB8DEB03C4050083C725002A8A2E894D
:10158000B389C5002E942380A400A380F400A9A0F1
:101590002D47638FE7041547639DE7022285EFE03F
:1015A000FFFE01E50290014581A883475400834670
:1015B000440003472400A207D58F9356770093F782
:1015C000F77FB9C2238244012383E4002394F4000B
:1015D000D13D834704003E94637C3401834704007B
:1015E000A29763E7F900834714001147E392E7FAF3
:1015F0003305244142054181F2406244D2444249CC
:10160000B249224A05618280238E4401238FE4007F
:101610002390F402F93B55FD71B7014582805D715D
:10162000A6C286C6A2C4CAC04EDE52DC56DA5AD85A
:101630005ED662D466D2B28451CE03598500035679
:10164000A5000347650042094206835745002A8AE0
:10165000AE8913590901418255E3634BC90833062A
:10166000C9401317060141836379F71C3387E740AC
:101670003A864207418363F3E40026869314060109
:10168000C1804A876377F70C032C0A003384F44047
:10169000338BE7403A94420B4204135B0B014180C9
:1016A0003A9C63890616636A9B0A2686E2854E8504
:1016B000EFF0AFF303574A00B3079900C207C183A5
:1016C000060763E4270163C5E700998FC207C1835A
:1016D0002314FA00B64026440649F259625AD25AF7
:1016E000425BB25B225C925C26859644616182809B
:1016F00013971700118F4A974207B5B763EBF400B1
:1017000081E69D8CB38995008144E9D73289BE84F6
:101710008DBF939517003307C9406355C9003387C0
:10172000C5404A97420741832697E34CB7F43309F3
:10173000F600330999404209135909016364C9004D
:10174000E341B9F4B305B9401399050113590901EF
:101750000DBF1D8F4207418335B783CB06004E85F1
:10176000E285B30C7041B37C9B01938AFBFF6686D4
:10177000B3FA6A0136C493FAFA0FEFF00FE7A24604
:101780003385990163850A08B38B5B415E87C20B81
:1017900093DB0B01637374012287937BF70F93092B
:1017A000C10133867A01CE8536C62AC4EFF0EFE355
:1017B0002245B2465E8B110581473387F900034706
:1017C000070033869701629685072300E60013F72A
:1017D000F70FE36457FF01471376F70F83270A00DB
:1017E000636D760133076441131407014180B385AB
:1017F0007701E30104EC228665BD3386EA004E964C
:1018000003460600BA9705072380C700F1B7832572
:101810000A00C5B763689B002686CE856285EFE027
:101820003F8F49BD5A86CE856285EFE07F8E0325C6
:101830000A002286B3856901DDB7814461BD7971F3
:1018400022D406D626D24AD04ECE52CC56CA834790
:10185000150015472A84F91793F7F70F6366F70405
:1018600017270000130707938A07BA979C43BA9774
:10187000828797070020238907C097070020A38548
:1018800007C097070020238307C097070020238EF7
:1018900007BE19A89707002083C707BF95C38547D0
:1018A000170700202303F7BE03A541828146A285C6
:1018B00003564500C9A09707002083C7E7BCF1F78E
:1018C000B250225492540259F249624AD24A4561B6
:1018D000828063F7F40A3387540383270A00BA9798
:1018E000DDEB850493F4F40F83C70182138727008F
:1018F0001377F70FE3EFE4FC9707002083C7E7B8FF
:10190000A1C397070020238207B88347040003A5DB
:10191000418281462302F1009547A302F10003565C
:1019200045004C0021052313010023140100231559
:1019300001002316010023170100D53111E10290A7
:101940009707002083C7A7B4858BBDDB83470400BE
:1019500003A54182231301002302F1008D47A30256
:10196000F1005C40035645002316010023170100D7
:101970003EC481464C0021055D3139F1029089B7A2
:10198000B387F44093F7F70FE36DF9F4B307F04032
:1019900093F74702CE979C53A9D74C4003450400C8
:1019A000829781B78144054997290000938909A44A
:1019B000138AC181930A400205BF83C781828507CC
:1019C0002384F182D5B58345450013F7F500E30D77
:1019D00007EC97040020938424AB060793D6750088
:1019E000B387E400B69783C7770103C6018263F02B
:1019F000C70613064002B387C70203A6C181B29788
:101A0000E38407EA03A8C701E30008EABA94B6949E
:101A100083C77402144403465400F99BA383F40261
:101A200083C77402ED9BA383F4020345040002986C
:101A3000E31805E883C7740293E71700A383F40251
:101A400083C7740293E74700A383F402B1BD918F6B
:101A500093F7F70F0546E369F6E4B307F04093F711
:101A600047021726000013066698B29761BF01115E
:101A700006CE22CCEFE09FF72AC605C903C411B2F7
:101A80002285EFE0BFAA15C1B245130600041385F5
:101A900001AAEFE0EFE722856244F240130600045A
:101AA000938501AA05616FF0CFF2F24062440561AF
:101AB000828083C721B203C711B2638DB702630D61
:101AC000B702029001458280411106C601E61385E6
:101AD00001AE713F03C521B213060004938501AE28
:101AE000EFF02FEF09C50545B24041018280029019
:101AF0000145DDBFE31AF7FC0545828083D6419A94
:101B000003D7619A93050004B387E6403E86C20777
:101B1000C18363F3F5002E86838781994206418253
:101B200063D70702638CE60283A5019A9DC9011160
:101B30001385418F06CE32C6EFE08FDD3246F2408C
:101B4000130500089385418F05616FF08FE801450B
:101B50009385418FE39BE6FE8145C5BF13050008D1
:101B6000E5BF0145828041111387819922C426C2B5
:101B70002A844AC0AE843289AA8521463A8506C69F
:101B8000EFE00FD904C52393019A8347740083467D
:101B900064002A87A207D58FCA866363F900BE86D0
:101BA000139606012316D700418299CF09C681E416
:101BB0000290014521A0993765DD0545B2402244D8
:101BC000924402494101828003450400EFF0EFF6A0
:101BD000E5B70545B287639FA5020347060089461E
:101BE000014515830D8B6317D70283461600639357
:101BF000E60203475600834646002207558F9D465E
:101C0000631AD7001306200B971500009385C57241
:101C10003E8591BF82800347060032858546137654
:101C2000F701631CD614AE870348450083C501B293
:101C3000938601B26313B814411106C613770706E1
:101C400029E76386C7000545B2404101828003470A
:101C5000150099476315F7088347350013071002ED
:101C60006399E7008C46A5CDB24003C6050041014B
:101C7000DDBD130720026394E70603D641B2971532
:101C8000000093852568C5357DBF130600026318E3
:101C9000C7040347150029467D171377F70F6360C4
:101CA000E60417160000130666500A073297184319
:101CB000329702870547E398E7F88346250099CED7
:101CC00003477500034665002207518F63F8E7005C
:101CD000938501A62380D5003E8675B70290014505
:101CE000A5B70546639FC700034675008347650097
:101CF000938501A622065D8E93070004E3E1C7FEEB
:101D000059B70D47E391E7F483462500138701A6F1
:101D100099CE8347750083456500A207CD8F637810
:101D2000F60083C701A66394D700138711A63A85EE
:101D30003D3B11BF0547E398E7F083473500A38398
:101D4000F600EFF06FE001B70547E39EE7EE3E8651
:101D5000938571B20DBF0547E397E7EE3E86938505
:101D600061B215B70547E38EE7FC0D47E39DE7EC4D
:101D7000834725002383F600F9B501458280197158
:101D8000A6DACAD8CED6D2D4D6D286DEA2DCDAD0B3
:101D9000DECEE2CCE6CAEAC8EEC6938941821D4A8D
:101DA000971400009384444317F9FF1F1309C96D6A
:101DB000938A818203A4090001451C40829703563F
:101DC000440081464C0813058400EFF06F861C40E8
:101DD0002A8B0545829763030B0683475101FD1744
:101DE00093F7F70F6363FA768A07A6979C43A69743
:101DF000828703454101EFE03FB323AC019823AE56
:101E0000019823A0019A23A2019A23A4019AE247F0
:101E1000A302F90045B703454101EFE0FFB023AC51
:101E2000019823AE019823A0019A23A2019A23A42A
:101E3000019A49B783C781828DE30290F6506654B8
:101E4000D6544659B659265A965A065BF64B664CF6
:101E5000D64C464DB64D0961828083C78182FD17FD
:101E600093F7F70F2380FA0083C78182A1F797FBCE
:101E7000FF1F938B6B6185452380BB0097F7FF1F86
:101E800083C7F7620347810193868199F99BA383F6
:101E9000FB0297F7FF1F83C7976113770706ED9B38
:101EA000A383FB0297F7FF1F83C78760F99B2384F7
:101EB000FB0297F7FF1F83C7A75FED9B2384FB02FD
:101EC000834741013EC423A4019A9307000663148B
:101ED000F70002909DA193070004631DF7002245BF
:101EE00097070000938727CF30089CCADD31E313A2
:101EF00005ECA1A1E247FD8B638DB7400946638DD8
:101F0000C748E1FB93070002631BF7048347C10145
:101F10003D476364F742DE9783C5770083C701823C
:101F200063FBF50093074002B385F50283A7C181E7
:101F3000BE958DE119A19D8D93F5F50F854763EE53
:101F4000B73EB305B04093F545029717000093875D
:101F5000E749BE9522453008EFE06F9D49BF35FB4C
:101F6000834791012547E366F7F61717000013072B
:101F7000A7288A07BA979C43BA978287E247854584
:101F800001459CC2F247DCC223A0019A23A2019A18
:101F900023AE01B223A001B423A201B4EFF0EF9667
:101FA0008547A380FB0039B597F7FF1F83C7074E0E
:101FB0002308F102054689AE034CA10197F7FF1FE4
:101FC00083C7C74C630CFC30A5C7376400408357F8
:101FD00004C441671307F7DFF98F2310F4C4EFE05F
:101FE000AFC8130404C09387419305477D56A145AC
:101FF00093162700A296239006002382C700A3828F
:10200000C70023830700A383070005079107E31197
:10201000B7FEEFE00FC7224517F4FF1F0344144734
:102020009307000C2398F180EFE01F90A3828B00B0
:1020300023828B0163040C2A97F7FF1F83C7F744A1
:102040001715000013059523171C0000130C8C2690
:10205000F99BA381FB002A846372842983470400CF
:10206000A297636DFC2603471400AD466314D700A6
:102070003E84DDB791476308F700029097F7FF1F92
:1020800023860740B9B5B30C8C40C20C93DC0C011D
:10209000814B054D971D0000938D4D35138BC181EC
:1020A0009306400283C70182138627001376F60F3A
:1020B000E3F5CBFC63F1FB063386DB0283270B00E1
:1020C000B297C5DF9C4B22456686A2858297214840
:1020D00093064002637FA80663EDAC062295637EFB
:1020E000A4060347040022976369E50683471400AA
:1020F0009546639ED7028346240017F6FF1F1306FA
:10210000163A93F7F6008607B2979D82B69723801A
:1021100077013A84E9B7B387FB4093F7F70FE36E93
:10212000FDF4B307F04093F74702EE9761BF914685
:10213000E391D7FE83473400E9FF83472400BD467F
:1021400063F4F600029015BF97F6FF1F93863634AE
:1021500075BF850B93FBFB0FB1B783C7018289075E
:1021600093F7F70FE3E9FBEE09BF8357A101394667
:1021700093D687001387F6FF1377F70F636FE61A7E
:10218000171600001306C6090A073297184332973C
:102190000287494697150000938585152808EFF0BA
:1021A0009F9CB1B3171600000356E6109715000068
:1021B00093854510E5B789476391F6181716000017
:1021C0000356660B971500009385C50AC1BF93F7A8
:1021D000F70FA1C70D476383E7061547636FF71431
:1021E00017170000130787078A07BA9780432285CD
:1021F000EF0050619307000263F3A7003E85138749
:10220000419581470907630FF500B306F40083C6C3
:10221000060085072310D700F5B793079040239B4E
:10222000F194054513061500060642064182938582
:102230004195936706302390F5008DB7B7F7FF1FE0
:1022400083A7877E938B4195014B3ED0B7F7FF1F45
:1022500083A7C77E130C0102B14C3ED2B7F7FF1F14
:1022600083A7077F3ED44146971500009385C5ECB0
:102270000818EFD0FFE9B3076C0103C40700180882
:1022800041469377F40093870703BA9783C707FF04
:1022900097150000938545EA08182392FB00EFD0BC
:1022A0003FE711849307040318083384E70083474A
:1022B00004FF050B910B239FFBFEE3169BFB61457F
:1022C00095B70357A10185476319F70697F7FF1FD5
:1022D00083C7B71B93E72700A381FB002808EFF013
:1022E000AF86C9BC0357A10185476318F70497F768
:1022F000FF1F83C79719F59BC5B797F7FF1F83C7C4
:10230000D7182318F10209460C182808EFF0BF85EA
:1023100055B40347C101BD4663E1E6025E978345BC
:10232000770003C7018263F2E50293074002B38599
:10233000F50283A7C181BE959DE50145EFE06F964B
:1023400013050008EFE0EF95B5B4998D93F5F50FFF
:10235000E3E5B7FEB305B04093F5450297170000DB
:102360009387C708BE9522453008EFD05FDCE313A2
:1023700005A48347810193F70706E1F323A4019A9B
:102380008347910129476386E7002D47E388E7F4F7
:102390006DB72308010239B90345C1019377850060
:1023A000E39907B21374F5000604135C7500B38754
:1023B0008B00E29783C7770183C6018263FBD70254
:1023C00093064002B385D70283A7C181BE95E3126D
:1023D00007B683479101854613F7D70F630BD702E2
:1023E000E39907AE5E946294834774028583F58F08
:1023F00009BF958F93F7F70F63EEF526B305F0400D
:1024000093F5450297170000938747FEBE9571D359
:1024100091B68356A101D5E26394E70CB30684011B
:1024200092061387C1B236978346E70037670040AC
:10243000130707C08A06BA9603D70600216613065B
:102440000608518F6319FC08A5679387F7FB1306ED
:102450000004D18FF98F13F6076013070040630A59
:10246000E600314663030C00114609473317C700E5
:10247000B98F37E700E01307071821482322070127
:10248000414548C337060004C20750C3C1832390A7
:10249000F600B7E700E09387071023A20701C8C33F
:1024A0005E94D0C3629483477402F59BA303F40245
:1024B00083477402F99BA303F402E38D058E224542
:1024C0003008EFD0DFC623A4019A83A78B02858B47
:1024D000E392078E21B5B1679387F7F8116695BF30
:1024E0005E9462942EC6EFD0DFFB83477402B24540
:1024F00093E72700A303F4028347740293E71700CE
:10250000A303F4025DBF8345810113F6F500931721
:10251000160093D67500CA97B69703C77702799BC2
:10252000A383E70203C777026D9BA383E7026318C7
:10253000060C938B819983A70B00034B41017244D6
:102540009D83858B6388F60401C402906FF09F869B
:1025500083C7819993F7F70791EF03C7919995473F
:10256000631AF70003C7A199B7670040136707080C
:102570002396E7C4214685450145EFD0FFBB83A7DD
:102580000B01E3890782138681998D455A858297CD
:102590006FF05F828387819963CB070003A58B006F
:1025A000E30A058022869385418FEFD07FB683D7DB
:1025B000619A03A78B00A2972297C20723A4EB007E
:1025C00003D7E199C1832397FB006306F7009307C4
:1025D000F00363E3870283A70B0181EB03C58199B5
:1025E000EFE0BFD5631805FC8DB713868199894547
:1025F0005A85829765F599B3EFF04FD0E5B783C759
:10260000770103C7018263F4E70213074002B3872F
:10261000E70203A7C181BA97E38107829C4FF24684
:10262000034691010345410182976FF0AFF8998FFE
:1026300093F7F70F0547E362F780B307F04093F78E
:10264000470217170000130767DABA97C1BF97F759
:10265000FF1F83C767E36FF0EFF5E247638C07F472
:10266000724582976FF00FF597F7FF1F83C727E238
:102670006FF04FF48145E31207CCA1BB5D71A2C49A
:1026800086C6A6C283C7A19C368499E903C7219B4D
:102690000145D98FB1CFB64026449644616182800E
:1026A0006388F50483C7219B0145E396B7FEEFE0FD
:1026B0007FDF631E050E03D7419C83D7619C63189F
:1026C000F70E6306040E83D7419BFD17E18F6390DD
:1026D000070E1385019BEFD03FEA630A050C814585
:1026E0001385019BEFE0FFC86313050C0290C1A0A6
:1026F00083A5019D89C91316040181464182138572
:10270000419DEFE0DFF11304F0039304F00F29A0E3
:10271000638B9500EFF0AFE683D6819D97E5FF1FB1
:1027200083C5C58F368583D7C19D03D6E19D63C21E
:10273000C708918FC207C1832A8763F3D7003E87FA
:1027400042074183E376E4FC8A8581461306000450
:102750001385419DEFE0CFEDEFE0BFC90A85EFE0C3
:10276000EFA8AA8539C11306000481461385C19BD1
:10277000EFE0FFEA83D7419C03D6619C03D7019C1D
:1027800063CEC702918FC207C18303D6419BBA862D
:1027900063F3E700BE86C206C18263F4C6006374B9
:1027A000C700EFE03FD0EFE0FFCFEFE09FC405456B
:1027B000DDB513971600118FBA97ADBF93161700AA
:1027C000918EB697C9B7397122DC371402405C503C
:1027D00006DE26DA4AD84ED652D456D25AD01397AD
:1027E000570063440700EFD09FEB5C4C370700189D
:1027F000D98F5CCC377700401C4393E707101CC38C
:1028000002C4130707C03AC42247130787023AC419
:10281000A24703D70700916793870717131407018F
:1028200041806304F704EFD05FEB19651305C524FD
:10283000630AA404EFD09FBDB7F700E0114798C327
:10284000814694C701473776DC02D8C7130606C015
:1028500090CB8146D4CB23A207009843136717007F
:1028600098C3D843058B75DF21A8EFD05FE3EFD085
:10287000DFE6B71701409387078013070002D8CB24
:10288000EFD0FFE10145EFD07FB8377700401C4320
:10289000B716024093F7F7EF1CC3DC4E370700E88A
:1028A0007D17F98FDCCEB7270240984BB70600FFA3
:1028B000FD16758F98CB984BB7064000558F98CB77
:1028C00017D7FF1F034787759307F00F6312F70EA3
:1028D00013067003814517F5FF1F1305E5BAEFD006
:1028E0003F822384018297D7FF1F2396077297D7D1
:1028F000FF1F2391077297D7FF1F9387A77023A20B
:10290000F18201442380018223AE01808544138932
:10291000C1819309400283C701821387270013777F
:10292000F70F636DE40697D7FF1F2389076E0D47E6
:10293000B76700402390E7C402C81307700CC24772
:102940006378F710B767004003D707C4C166F51670
:10295000758F2390E7C402C61307700CB247637EDD
:10296000F70EB7670040239207C4239007C423984B
:1029700007C403D707C4B966938606D0558F239042
:10298000E7C4EFD07F8DB747024093870780984315
:102990001367270098C3EFD0DFAE19A86374F4085B
:1029A0003307340383270900BA97C1EF02900290DE
:1029B000371702401C4F93040002480893E7470072
:1029C0001CCF8D473ECC37140140C147231A9100DC
:1029D0003ECE138AC182EFD03F931309007D930A44
:1029E000703ED149130B803E1304048017D6FF1F9D
:1029F0000346C6629306F00F03270A00B377270346
:102A000063F4FA00B307F940B3873703337737032A
:102A1000B3D767036378F70404C8E30FD6FCEFF07D
:102A20000FB6E9B7B307F44093F7F70FE3E0F4F814
:102A3000B307F04093F74702171700001307079BEF
:102A4000BA97DC43A5D7050482971374F40FE1B558
:102A50000100C24785073EC8DDB50100B2478507C2
:102A60003EC6EDBD44C855BFB71702409843B706F0
:102A7000FFF81367170098C3D843758FD8C39843DE
:102A8000B706F7FEFD16758F98C39843B706FCFF8F
:102A9000FD16758F98C3D843B70681FFFD16758F55
:102AA000D8C337079F0098C73747024013070780EE
:102AB000144393E6060114C3D843B706C1FFFD16BD
:102AC000D8C3D843D8C3D84313670740D8C3D84323
:102AD000758FD8C3D843B7062800558FD8C39843FD
:102AE000B7060001558F98C3984393166700E3DD3E
:102AF00006FED843B7160240719BD8C3D84313676C
:102B00002700D8C32147DC42B18BE39EE7FE8280D9
:102B10003571BED8B7670040BADA03D747C4D6CC00
:102B200006CF931A070116CD1ACB1EC922C726C598
:102B30002AC32EC1B2DEB6DCC2D6C6D4CAD2CED02B
:102B4000D2CEDACADEC8E2C6E6C4EAC2EEC072DE9F
:102B500076DC7ADA7ED81377072093DA0A011DC370
:102B6000938707C01307F0DF2392E70483D7870416
:102B700013070030481093F7F77F2312E1023ED489
:102B8000EFE0FFCB93F70A40A5C3B76700401307F8
:102B9000F0BF2392E7C4EFD02FEC9307001048104A
:102BA0002312F10202D4EFE09FC93A44FA40EA420C
:102BB0005A43CA43AA441A458A457656E65656579A
:102BC000C6573658A65816598659764AE64A564B7D
:102BD000C64B364CA64C164D864D725EE25E525F79
:102BE000C25F0D617300203093973A0163DD0702E5
:102BF000B767004003D707C4C166ED16758F2390F1
:102C0000E7C403D707C4C166DD16758F2390E7C4F8
:102C10007D777D172392E7C4481093070050231255
:102C2000F102EFE0DFC193974A0163DC0702B76767
:102C3000004003D707C44810136787002390E7C4F8
:102C400003D707C4136747002390E7C47D771307B2
:102C5000F77F2392E7C4930700402312F102EFE0CD
:102C60001FBE93F70A1095CB83C721810547639F49
:102C7000E70037670040835607C441663D16F18E72
:102C80002310D7C4FD172389F18011A0E5FFB76792
:102C900000401307F0EF2392E7C48567938707800E
:102CA0003EC6E5779387F7F83EC4138DC1B2B76B84
:102CB0000040617C93890BC0130C0C0883D7490436
:102CC000C207C18763CC070093971A01E3DF07ECC3
:102CD0000290F177FD172392F904C1BD03D949048D
:102CE0001379F900131429004E9483570400939C20
:102CF0000701C207C18793DC0C0163D10706B24705
:102D0000B3F7FC006380071093174900DE9783D464
:102D1000C70003D58700814693F4F43F0605268655
:102D20006C085E95EFE06F8C8357040022472146C4
:102D3000F98F0567B3E787011307F7F8F98F2310B9
:102D4000F400639BC40A72479307006048103AD4AA
:102D500002572312F1023AD6EFE07FAE93FC0C0843
:102D6000E38E0CF48357040065771307F7F8F98FA7
:102D7000617713070708D98F25671307F7F0F98FD5
:102D80002310F40003570400930500401385C1B2DB
:102D9000931707011376F70093760760C183131723
:102DA0005600639DB602B306E50083C5F601E380D5
:102DB00005F09983858BA38F060093C717009316A0
:102DC0001900B6978E07B7660040B69783D64700BE
:102DD000C165938505C0ED8E2392D700B307E5004A
:102DE00083D6A70183D78701638ED7124107CA858F
:102DF0003A95EFE06F9F65BD029085450145EFD0A4
:102E0000AFB3A9BF835704002247F98F05671307A3
:102E1000F7F8B3E78701F98F2310F400035A040091
:102E200093070040054793140A01937DFA00137A33
:102E30000A60C1806317FA0013D7E400058B1347BB
:102E4000170093171900BA978E07DE9703D747002C
:102E5000139B5D0083D707001377F73F3AC2330710
:102E60006D0148438607DE9735C112460947541065
:102E7000BE852302E10202D4EFE06FFA33076D0151
:102E80008357A70092460356C700B697C207C1836F
:102E90002315F70063E6C6000357870063E2E704E3
:102EA00085454A853EC2EFD02FA99247130700708F
:102EB00048106A9B2312E1022304B1033ED6A30407
:102EC0000102EFE0DF9723240B0049BD8355A700E3
:102ED000184312468146BA953E85EFD01FF179BF5F
:102EE000930600406301DA02B307F7403E87C2074A
:102EF000C1836373F600328713160701418285454B
:102F00004A85EFD06FA3F1779387F7F8FD8CE177CF
:102F100093870708DD8C8D67BD8CC204C1802310A8
:102F200094002DBD13070070136606F84810231295
:102F3000E1022304C1023ED6A3040102EFE03F9068
:102F4000BDB3397106DE16DC1ADA1ED82AD62ED4A5
:102F500032D236D03ACE3ECC42CA46C872C676C4C9
:102F60007AC27EC0EFF0DFBAF250E2525253C2533F
:102F70003255A255125682567247E2475248C2480D
:102F8000324EA24E124F824F2161730020303971B0
:102F900006DE16DC1ADA1ED82AD62ED432D236D065
:102FA0003ACE3ECC42CA46C872C676C47AC27EC009
:102FB000EFF01FB6F250E2525253C2533255A255AF
:102FC000125682567247E2475248C248324EA24ECB
:102FD000124F824F21617300203073002030730044
:102FE000203041113AC63EC4B7F700E023A20700E3
:102FF0001387C1821C4385071CC33247A247410186
:1030000073002030AA8703C7070085076DFF33854B
:10301000A7407D15828001A017150000130585FECD
:103020000841B7E539E3938595336305B504371552
:1030300002404C51960563C405006F00707C4C4DF6
:1030400037060018D18D4CCD377500400C4193E503
:1030500005100CC1B7760040938686C283D5060062
:10306000116613060617638DC50819661306C62474
:103070006382C50097D1FF1F9381417A17210020F9
:10308000130141F8170500001305C53A97D5FF1F36
:10309000938545F71386018163FAC50083220500F5
:1030A00023A0550011059105E3EAC5FE13850181B2
:1030B00097E5FF1F9385C5406377B5002320050082
:1030C0001105E36DB5FEFD42739002BC8D42739015
:1030D0004280930280087390023097D2FFFF938260
:1030E000A2F293E2320073905230EFF0FF9797F222
:1030F000FFFF9382826D739012347300203001A021
:1031000023900600377500400C4193C505100CC193
:103110003715024071050C4137060018B18D0CC1FE
:103120006F00106E574348204348333256323033D5
:1031300000000000303132333435363738394142FF
:103140004344454600000000574348004849442096
:10315000426F6F746C6F616465720000555342205A
:10316000426F6F746C6F61646572000092D9FFFFEB
:10317000C2D8FFFFF8D8FFFFD8D9FFFFD8D9FFFF8B
:103180005EDAFFFF2ADBFFFF96DBFFFFA6DBFFFF18
:10319000E2E6FFFF14E8FFFF04E7FFFF26E7FFFF7B
:1031A0002AE8FFFF36E8FFFF0CEBFFFFA0EBFFFF75
:1031B000AEEBFFFF36EBFFFF36EBFFFF36EBFFFF1B
:1031C00036EBFFFF36EBFFFF3AEBFFFF8CEBFFFF29
:1031D000BCEBFFFF1EECFFFF42ECFFFF94F4FFFF90
:1031E0007AF4FFFF7AF4FFFF60ECFFFF32F3FFFF9A
:1031F00086F4FFFF06F1FFFFF0F0FFFFDEECFFFFBC
:10320000CEF0FFFFDEECFFFF88EDFFFF76EFFFFF64
:10321000DEECFFFFB4EDFFFFC4EDFFFF76EFFFFF35
:103220009AEFFFFFB2EFFFFF1EF1FFFF1EF1FFFF5E
:103230001EF1FFFF9AEFFFFF1EF1FFFF1EF1FFFFE0
:103240001EF1FFFF1EF1FFFF1EF1FFFF1EF1FFFF4A
:103250001EF1FFFF88EFFFFF200000204831000033
:103260004C310000000000004C3100005C310000D7
:10327000090240000201008032090400000203003C
:103280000004092111010001222200070501034069
:10329000000A0705810340000A0904010002FF003B
:1032A00000050705020240000007058202400000F9
:1032B000050F3900021810050038B60834A909A016
:1032C000478BFDA0768815B665000101011C10052D
:1032D00000DF60DDD88945C74C9CD2659D9E648A1D
:1032E0009F00000306B2000200000000120101026C
:1032F0000000004055F08565000101020301000057
:103300000600FF0901A1010902150026FF0075084A
:10331000954081020903150026FF0075089540912C
:1033200002C00000000000000102030401020304C7
:10333000060708090A00000000000306B2000800A2
:1033400001000000A800080002000100A000140015
:10335000030057494E555342000000000000000092
:1033600000008400040007002A0044006500760085
:1033700069006300650049006E007400650072001A
:103380006600610063006500470055004900440085
:103390007300000050007B00390037003500460004
:1033A00034003400440039002D0030004400300067
:1033B00038002D0034003300460044002D00380052
:1033C0004200330045002D00310032003700430039
:1033D00041003800410046004600460039004400E4
:1033E0007D0000000000000000000000B8080000A0
:1033F00026010000A608000030120000161C000084
:10340000B21A0000000000000000000000000000F0
:10341000BC0800002A010000060900004A1500004F
:10342000D21B00007C26000000000000000000000D
:103430009C0400000C0000004C000020C0000000B4
:103440000000000000000000FF000000000000007D
:08345000090400000204060853
:00000001FF
